:1000000045C0000053C0000051C000004FC00000B8
:100010004DC000004BC0000049C0000047C00000B8
:1000200045C0000043C0000041C000003FC00000C8
:100030003DC000003BC0000039C0000037C00000D8
:1000400035C0000033C0000031C000002FC00000E8
:100050002DC000002BC0000029C0000027C00000F8
:1000600025C0000023C0000021C000001FC0000008
:100070001DC000001BC0000019C0000017C0000018
:1000800015C0000013C0000011C0000011241FBEE5
:10009000CFEFD0E1DEBFCDBF21E0A0E0B1E001C0F5
:1000A0001D92A030B207E1F722D0A1C0A9CF181647
:1000B00019066CF420E030E0EFECF7E03197F1F74F
:1000C00000C000002F5F3F4F28173907A9F7089598
:1000D0008FEF90E09BBD8ABD99BD88BD909379005C
:1000E0008093780089EA8FBD8BE08EBD08958FEFF5
:1000F00087BBEEDF84E690E0DADFCC24CA94D12C13
:100100000F2EF8E7EF2EF12CF02DAA24A394B12C9A
:10011000912C812CDBBCCABCD9BCC8BCF701D182F4
:10012000C0828601CA2DDB2DC80199279BBD8ABDDF
:1001300022968AE090E0BBDF0C1B1D0BAAF7092D6D
:10014000182DC80199279BBD8ABD22978AE090E0AF
:10015000AEDF0C0F1D1F0F3F110599F394F384E6DA
:1001600090E0A5DF8601CA2DDB2DC801992799BD36
:1001700088BD22968AE090E09ADF0C1B1D0BAAF73F
:10018000092D182DC801992799BD88BD22978AE0AD
:1001900090E08DDF0C0F1D1F0F3F110599F394F3B5
:1001A00084E690E084DF8601CA2DDB2DC801992703
:1001B000F7019183808322968AE090E078DF0C1B20
:1001C0001D0BA2F7092D182DC8019927F70191835E
:1001D000808322978AE090E06ADF0C0F1D1F0F3F9B
:1001E000110591F38CF384E690E061DF93CFF894EE
:0201F000FFCF3F
:00000001FF
