:1000000045C000004CC0000049C0000047C00000CF
:1000100045C0000043C0000041C000003FC00000D8
:100020003DC000003BC0000039C0000037C00000E8
:1000300035C0000033C0000031C000002FC00000F8
:100040002DC000002BC0000029C0000027C0000008
:1000500025C0000023C0000021C000001FC0000018
:100060001DC000001BC0000019C0000017C0000028
:1000700015C0000013C0000011C000000FC0000038
:100080000DC000000BC0000009C0000011241FBEFD
:10009000CFEFD0E1DEBFCDBF11D01FC0B1CF1F92D7
:1000A0000F920FB60F9211248F9385B3880F85BBE3
:1000B0008F910F900FBE0F901F90189511BA8FEF70
:1000C00084BBEAE6F0E080818B60808389B783603F
:0E00D00089BF789481E085BBFFCFF894FFCF05
:00000001FF
