S00E00005465737476322E73726563CE
S113000045C0000058C0000056C0000054C00000A5
S113001052C0000050C000004EC000004CC00000A0
S11300204AC0000048C0000046C0000044C00000B0
S113003042C0000040C000003EC000003CC00000C0
S11300403AC0000038C0000036C0000034C00000D0
S113005032C0000030C000002EC000002CC00000E0
S11300602AC0000028C0000026C0000024C00000F0
S113007022C0000020C000001EC000001CC0000000
S11300801AC0000018C0000016C0000011241FBED2
S1130090CFEFD0E1DEBFCDBF11E0A0E0B1E0E4E6F8
S11300A0F1E000E00BBF02C007900D92AA30B10747
S11300B0D9F745D055C0A4CFAB9A89EF90E001970A
S11300C0F1F700C00000AB9889EF90E00197F1F7D9
S11300D000C000000895CF93C82F85BBAA98ECDF19
S11300E0C295C07FC5BBAA98E7DFCF9108958FEF73
S11300F084BB15BA82E0EFDF88E2EDDF8CE0EBDF52
S113010086E0E9DF80E8E7CF0895CF93C82F85BB69
S1130110AA9AD2DFC295C07FC5BBAA9ACDDFCF9180
S11301200895CF93DF93EC018881882329F02196E9
S1130130ECDF89918111FCCFDF91CF9108958FEF8E
S113014081BBD5DF80E091E0ECDF90E485B38927C3
S113015085BBE3E2F4EF3197F1F700C00000F6CF7E
S1070160F894FFCF3D
S10D01645377616720626F79000091
S9030000FC
