S01500005363726F6C6C696E67746578742E737265639D
S113000045C0000060C000005EC000005CC000008D
S11300105AC0000058C0000056C0000054C0000080
S113002052C0000050C000004EC000004CC0000090
S11300304AC0000048C0000046C0000044C00000A0
S113004042C0000040C000003EC000003CC00000B0
S11300503AC0000038C0000036C0000034C00000C0
S113006032C0000030C000002EC000002CC00000D0
S11300702AC0000028C0000026C0000024C00000E0
S113008022C0000020C000001EC0000011241FBEBA
S1130090CFEFD0E1DEBFCDBF11E0A0E0B1E0E8E7F3
S11300A0F5E000E00BBF02C007900D92AE31B1073E
S11300B0D9F721E0AEE1B1E001C01D92A432B2074C
S11300C0E1F779D057C29CCF1092710080E28093FF
S11300D07000089584EA80937400E4E7F0E080817E
S11300E08823ECF708958093730084E88093740068
S11300F0E4E7F0E080818823ECF7089518161906E8
S11301006CF420E030E0E9EFF0E03197F1F700C063
S113011000002F5F3F4F28173907A9F70895CF93A1
S1130120DF93C82FD62FD6DF80EEDDDF8D2FDBDF08
S11301308C2FD9DF84E980937400DF91CF910895E7
S1130140CF93C82FC7DF80EECEDF8C2FCCDF84E9BE
S113015080937400CF9108950F931F93CF93DF93EF
S1130160C6E1D1E00EE111E0699180E0D8DFC0176B
S1130170D107D1F7DF91CF911F910F910895EF929D
S1130180FF920F931F93CF93DF937C01EB01CC0F6E
S1130190DD1FCE01B9D08C0190931F0180931E0105
S11301A0AE01B701DED1C801DF91CF911F910F914C
S11301B0FF90EF90089588DF81E2C2DF80EAC0DF1C
S11301C083EEBEDF81E8BCDF00E010E0EE24E394C0
S11301D0F12C0F2EF6E16F2EF1E07F2EF02DB12CD5
S11301E0A12CBADF6EE070E086E091E0C8DFEC019C
S11301F080911E0190911F011CD1C8010796D7015F
S113020002C0AA0FBB1F8A95E2F7BD0160957095E5
S11302106E01AE01405F5F4FFE01EF01808191816D
S11302209C0135952795002E02C0959587950A94D3
S1130230E2F780FF03C02A2B3B2B02C0262337237F
S1130240398328833296E417F50739F7E3018B2CB9
S11302509A2C0A30110561F4C4010297059750F5F0
S1130260F6018181859585956881806858DF2DC068
S11302700B30110569F4F6E08F169104D9F4F601F8
S113028081818595859585956881806848DF34C02E
S11302900C30110579F4F6E08F16910459F4F60147
S11302A081818595859585958595859568818068F5
S11302B036DF22C0F60180819181002E02C095951F
S11302C087950A94E2F768812ADFFFEF8F1A9F0A65
S11302D0219682E0C80ED11CE8E08E16910409F044
S11302E0B8CF0F5F1F4F0F30110514F00B2D1A2DCF
S11302F088EC90E003DF75CFFFEF8F1A9F0A2196F9
S113030082E0C80ED11CA5CFCF93DF938230910534
S113031010F482E090E0E0912201F091230120E0CA
S113032030E0C0E0D0E0309711F1408151814817AE
S11303305907C0F04817590761F4828193812097C7
S113034019F09B838A832BC090932301809322010D
S113035026C02115310519F04217530718F49A01E4
S1130360BE01DF01EF010280F381E02DDCCF211516
S1130370310509F1281B390B2430310590F412960C
S11303808D919C9113976115710521F0FB01938365
S1130390828304C09093230180932201FD0132964D
S11303A044C0FD01E20FF31F819391932250310960
S11303B02D933C933AC02091200130912101232BAD
S11303C041F42091020130910301309321012093E3
S11303D0200120910001309101012115310541F4E2
S11303E02DB73EB74091040150910501241B350BF4
S11303F0E0912001F0912101E217F307A0F42E1BF4
S11304003F0B2817390778F0AC014E5F5F4F241774
S1130410350748F04E0F5F1F509321014093200190
S11304208193919302C0E0E0F0E0CF01DF91CF919E
S113043008950F931F93CF93DF93009709F48CC013
S1130440FC01329713821282009122011091230140
S11304500115110581F420813181820F931F2091B0
S11304602001309121012817390779F5F0932101F2
S1130470E093200171C0D80140E050E0AE17BF07FF
S113048050F412962D913C911397AD01211531052D
S113049009F1D901F3CF9D01DA013383228360810D
S11304A07181860F971F8217930769F4EC012881E5
S11304B03981260F371F2E5F3F4F318320838A8176
S11304C09B8193838283452B29F4F0932301E0934A
S11304D0220142C01396FC93EE931297ED014991C9
S11304E059919E01240F351FE217F30771F480819F
S11304F09181840F951F029611969C938E9382810D
S1130500938113969C938E931297E0E0F0E0D801C8
S113051012968D919C911397009719F0F8018C0114
S1130520F6CF8D919C9198012E5F3F4F820F931FC0
S113053020912001309121012817390769F430975F
S113054029F4109223011092220102C01382128214
S11305501093210100932001DF91CF911F910F91FE
S11305600895FB01DC0102C001900D9241505040FE
S10B0570D8F70895F894FFCFB9
S113057800002401200000000000E20522052205F5
S11105882205EE1D000000020406080A0C0EF7
S9030000FC
