:1000000045C0000053C0000051C000004FC00000B8
:100010004DC000004BC0000049C0000047C00000B8
:1000200045C0000043C0000041C000003FC00000C8
:100030003DC000003BC0000039C0000037C00000D8
:1000400035C0000033C0000031C000002FC00000E8
:100050002DC000002BC0000029C0000027C00000F8
:1000600025C0000023C0000021C000001FC0000008
:100070001DC000001BC0000019C0000017C0000018
:1000800015C0000013C0000011C0000011241FBEE5
:10009000CFEFD0E1DEBFCDBF21E0A0E0B1E001C0F5
:1000A0001D92A030B207E1F722D0C9C0A9CF18161F
:1000B00019066CF420E030E0EFECF7E03197F1F74F
:1000C00000C000002F5F3F4F28173907A9F7089598
:1000D0008FEF90E09BBD8ABD99BD88BD909379005C
:1000E0008093780089EA8FBD8BE08EBD08958FEFF5
:1000F00087BBEEDF84E690E0DADF8FEF90E09BBD18
:100100008ABD99BD88BD9093790080937800CFEF28
:10011000D0E0EE24E394F12CCE0199279BBD8ABD5B
:1001200082E0E80EF11C8AE090E0C1DFCE19DF0921
:100130009AF799249A94A12CBB24B394812C712C06
:10014000612C0F2EF8E7CF2ED12CF02D092D1A2D72
:10015000CB2DD82DC801992799BD88BD22968AE05C
:1001600090E0A5DF0C1B1D0BAAF784E690E09FDF53
:10017000072D162DC80199279BBD8ABD82E0E81A7C
:10018000F1088AE090E093DF0E0D1F1D0F3F11056F
:1001900089F384F384E690E08ADFE92CFA2C0B2DB6
:1001A000182DC7019927F601918380830E5F1F4F99
:1001B0008AE090E07CDFE01AF10A9AF784E690E0AA
:1001C00076DFE72CF62CC701992799BD88BD2297C9
:1001D0008AE090E06CDFEC0EFD1EFFEFEF16F104FD
:1001E00091F38CF384E690E062DFC92DDA2DEB2CDD
:1001F000F82CCE0199279BBD8ABDF2E0EF0EF11CD1
:100200008AE090E054DFCE19DF099AF784E690E0A7
:100210004EDFC72DD62DCE019927F601918380831D
:10022000025011098AE090E042DFC00FD11FCF3F9A
:10023000D10589F384F384E690E039DF87CFF89421
:02024000FFCFEE
:00000001FF
